:020000040800F2
:100000006004002001010008830100087B01000852
:100010007F01000875010008970400080000000037
:10002000000000000000000000000000A701000820
:100030007901000800000000A5010008B9020008CD
:100040001B0100081B0100081B0100081B01000820
:100050001B0100081B0100081B0100081B01000810
:100060001B0100081B0100081B0100081B01000800
:100070001B0100081B0100081B0100081B010008F0
:100080001B0100081B0100081B0100081B010008E0
:100090001B0100081B0100081B0100081B010008D0
:1000A0001B0100081B0100081B0100081B010008C0
:1000B0001B0100081D0300081B0100081B010008AC
:1000C0001B0100081B0100081B0100081B010008A0
:1000D0001B010008B10300081B0100081B010008F8
:1000E0001B0100081B0100081B010008DFF80CD0F1
:1000F00000F02EF800480047CD06000860040020FC
:100100000648804706480047FEE7FEE7FEE7FEE7B1
:10011000FEE7FEE7FEE7FEE7FEE7FEE7BD020008BA
:10012000ED00000830B50B460146002020220124D6
:1001300009E021FA02F59D4205D303FA02F5491BB5
:1001400004FA02F52844151EA2F10102F1DC30BDCB
:10015000064C074D06E0E06840F0010394E8070014
:1001600098471034AC42F6D3FFF7C4FF1C070008D1
:100170003C07000800BFFEE7704700BFFEE700BF76
:10018000FEE7704710B54FF4A06000F001F810BD15
:1001900002490143024A1160704700000000FA055D
:1001A0000CED00E07047704710B500F001F810BD8D
:1001B0000CB50020019000903348006840F4803076
:1001C0003149086000BF3048006800F400300090FA
:1001D0000198401C0190009818B90198B0F5A06FE3
:1001E000F1D12948006800F4003010B101200090DE
:1001F00001E0002000900098012843D123480068C6
:1002000040F01000214908600846006820F0030013
:1002100008600846006840F0020008601A4840681C
:10022000194948600846406848600846406840F4FC
:10023000806048600846406820F47C1048600846AA
:10024000406840F4E81048600846006840F080705C
:10025000086000BF0C48006800F000700028F9D06A
:100260000948406820F00300074948600846406894
:1002700040F00200486000BF0348406800F00C00F6
:100280000828F9D10CBD00000010024000200240F7
:10029000042808D14FF0E021096941F004014FF032
:1002A000E022116107E04FF0E021096921F004012B
:1002B0004FF0E022116170477047000010B51348FD
:1002C000006840F001001149086008464068104984
:1002D00008400E494860084600680E4908400B492E
:1002E00008600846006820F48020086008464068DE
:1002F00020F4FE0048604FF41F008860FFF754FFB1
:100300004FF000600449086010BD0000001002407A
:100310000000FFF8FFFFF6FE08ED00E010B5012138
:10032000144800F032F818B30121124800F02AF8FE
:100330001148007828B111480078401C0F49087016
:1003400004E00E480078401E0C4908700B48007805
:10035000632802DB0020084908700848007810B9BB
:1003600001200549087005480178054800F01EF88D
:1003700010BD000000040040010000200200002029
:10038000002C0140CA430282704730B5024600206B
:1003900000230024158A05EA0103958905EA010472
:1003A00013B10CB1012000E0002030BD018770477F
:1003B00010B540F225511D4800F03EF810B31B481F
:1003C00000F064F8C4B21A48007800F08000C8B9A0
:1003D0001748007800F0400060B10A2C03D00020DC
:1003E0001349087020E01248007840F0800010495E
:1003F000087019E00D2C06D10D48007840F040003F
:100400000B49087010E00A48007800F03F000949E5
:100410000C5407480078401C0549087008460078CD
:100420003F2801DD0020087010BD000000380140A9
:100430001A0000201C00002070B502460024002392
:100440000025002040F66A16B14200D100BFC1F37A
:10045000421501F01F03012606FA03F3012D02D114
:100460009689334006E0022D02D1168A334001E01E
:10047000968A33400C12012606FA04F4168834409A
:1004800013B10CB1012000E0002070BD0146888846
:10049000C0F30800704700BFFEE700000FB4054B33
:1004A00010B503A9044A029800F018F810BC5DF8D2
:1004B00014FB0000A90600080C00002002E008C898
:1004C000121F08C1002AFAD170477047002001E0CE
:1004D00001C1121F002AFBD1704700002DE9FF4F18
:1004E00089B09B460446002506E025280BD05A46D5
:1004F0000B999047641C6D1C20780028F5D10DB035
:100500002846BDE8F08F0027B8460122474900E0A1
:10051000074314F8013F203B02FA03F00842F7D1E9
:1005200020782E2819D114F8010F47F004072A2843
:100530000ED06FF02F022078A0F1300109290CD8DD
:1005400008EB880102EB410100EB0108641CF2E7B3
:100550000A98641C50F8048B0A9020780028CED0AA
:10056000642808D0692806D075281ED05A460B99F1
:1005700090476D1C58E00A994FF00A0901C90A9189
:10058000002802DA40422D2102E0390504D52B2152
:100590008DF82010012103E0F90704D02021F7E7AE
:1005A0008A4608AE0DE00021FAE70A994FF00A09E1
:1005B00001C90A91F7E74946FFF7B4FD303106F863
:1005C000011D0028F7D1ADEB060000F120097807E6
:1005D00001D44FF00108C84502DDA8EB090000E096
:1005E00000208046002706E008A85A46C05D0B9907
:1005F00090476D1C7F1C5745F6DB04E030205A46BF
:100600000B9990476D1CB8F10001A8F10108F5DCC9
:1006100005E016F8010B5A460B9990476D1CB9F18D
:100620000001A9F10109F4DC641C65E70928010057
:1006300010B504466FF00400FFF72AFEE11704EB43
:100640005171C1F3C701074A11701046007800EBE1
:100650004001C1EBC0104FF6FF7101EAC000024932
:10066000088010BD040000200600002001460D4A4D
:1006700012884A434FF0E0235A6100229A61012216
:100680001A6100BF4FF0E022106900F001021AB1B8
:1006900000F48032002AF5D000224FF0E0231A61E6
:1006A0009A61704706000020074A126802F08072C3
:1006B00042B100BF4FF060421268002AFAD04FF0FA
:1006C0006043187070470000FCED00E000244820F3
:1006D000FFF7AEFFFFF756FD06A0FFF7DFFE07E0CE
:1006E0002146641C07A0FFF7D9FE6420FFF7BEFF78
:1006F000F6E700000D0A48656C6C6F20576F726C4E
:10070000640D0A0053776F20746573742074696DEB
:100710006573203D2025640D0A0000003C07000899
:10072000000000201C000000BC040008580700085E
:100730001C00002044040000CC0400080801000054
:1007400000000000A55AA55A0000000000000000AB
:080750000000000000000000A1
:04000005080000ED02
:00000001FF
