:020000040800F2
:10000000B004002001010008330B00082B0B00088E
:100010002F0B0008250B0008470E00080000000009
:10002000000000000000000000000000570B000866
:10003000290B000800000000550B0008690C00089F
:100040001B0100081B0100081B0100081B01000820
:100050001B0100081B0100081B0100081B01000810
:100060001B0100081B0100081B0100081B01000800
:100070001B0100081B0100081B0100081B010008F0
:100080001B0100081B0100081B0100081B010008E0
:100090001B0100081B0100081B0100081B010008D0
:1000A0001B0100081B0100081B0100081B010008C0
:1000B0001B010008CD0C00081B0100081B010008F3
:1000C0001B0100081B0100081B0100081B010008A0
:1000D0001B010008610D00081B0100081B0100083E
:1000E0001B0100081B0100081B010008DFF80CD0F1
:1000F00000F0B4FA00480047E5170008B0040020FB
:100100000648804706480047FEE7FEE7FEE7FEE7B1
:10011000FEE7FEE7FEE7FEE7FEE7FEE76D0C000800
:10012000ED000008D2B201E000F8012B491EFBD21D
:1001300070470022F6E710B513460A4604461946F2
:10014000FFF7F0FF204610BD0FB400B589B00BA833
:1001500000906A4603480A9900F0BEF809B05DF8BD
:1001600014FB0000400000202DE9FF5FD2E901A749
:100170004FF00008916999461446DDF838B04646BC
:1001800001988847054659EA0B0005D009E0A169A6
:10019000761C019888470546216A2846884700282A
:1001A000F5D1681C03D05FEACA7005D015E04FF0A6
:1001B000FF3004B0BDE8F09F2068011D2160D0F839
:1001C00000800AE05FEACA7001D108F8015BA1690A
:1001D000761C7F1E019888470546002F1ADD681C93
:1001E00018D0B9F1000F0DD0E81705EBD06042111F
:1001F00020F01F0059F822102A1A012090400142D5
:10020000E0D107E0BBF1000FDCD1216A2846884726
:100210000028D7D0E16901988847BBF1000F07D1CA
:10022000002E05DD5FEACA7002D1002188F80010B7
:10023000A068B84203DDBBF1000F03D017B16FF027
:100240000100B6E73046B4E730B50B460146002062
:100250002022012409E021FA02F59D4205D303FA88
:1002600002F5491B04FA02F52844151EA2F1010209
:10027000F1DC30BD2DE9F05F0546002092469B463B
:1002800088460646814640241BE0284641464746AC
:10029000224600F004FA53465A46C01A914110D340
:1002A00011461846224600F0EBF92D1A67EB0108BB
:1002B0004F4622460120002100F0E2F917EB000929
:1002C0004E41201EA4F10104DFDC484631462A4697
:1002D0004346BDE8F09F0000024B9361024BD3619F
:1002E00000F006BA811700086D0E00082DE9FE4FD8
:1002F000804681EA0300C00F0C46009021F00041C7
:1003000023F00045B8EB0200A94105D24046214642
:1003100090461C460B46024623F00040104347D04F
:10032000270DC7F30A00C3F30A510290401A019047
:1003300040286BDAC3F3130040F4801B0098924608
:1003400020B10023D2EB030A63EB0B0B0198594653
:10035000C0F14002504600F093F906460D46504663
:100360005946019A00F0ABF910EB080061410024F6
:1003700087EA115284EAE7731A4340D0009A62B3C5
:10038000019A012A4FEA075215DC001B61EB0201BA
:100390004FF0004202EA0752CDE90042001C41F54D
:1003A000801132462B4600F0C0F903B0BDE8F08F53
:1003B00040462146F9E7001B61EB0201001C41F5B4
:1003C000801300185B412018A2F5001747EB0301CA
:1003D00040EAD570B6196D4111E06D084FEA360656
:1003E00045EAC0754FEA0752001B61EB0201001C91
:1003F00041F5801149084FEA300000195141324659
:100400002B4603B0BDE8F04F00F080B90098012200
:1004100040000023D0EB020263EBE073009821461A
:100420004FEAE074B8EB000061EB0401E9E783F008
:1004300000435BE781F0004158E72DE9FE4F81EA78
:10044000030404F0004421F0004100944FF0000B3D
:1004500023F0004350EA01045ED052EA03045BD06B
:10046000C3F30A54C1F30A552C44A4F2F3340194A3
:10047000A0FB0254C1F3130141F48011C3F3130331
:1004800043F4801301FB024400FB034E840A970AE5
:1004900044EA815447EA8357A4FB076802958D0A12
:1004A00005FB07854FEA932C04FB0C542705029D9E
:1004B0004FEA065847EA1637B5EB08056EEB070C0E
:1004C000870E920E47EA811742EA8312A7FB0201C8
:1004D000B6EB0B0164EB00042B0D43EA0C335E1802
:1004E00044EB1C50DA465146E7FB0201C5F3130406
:1004F0004FEA0B3343EA14534FEA0432019C43EAB8
:100500000603A4F10C040294009CCDE900B400F0B1
:100510000CF903B0BDE8F08F00200146F9E72DE9A2
:10052000F04D81EA030404F0004B21F0004514462D
:100530004FF0000A23F0004150EA050220D054EAAF
:1005400001021DD0C5F30A570246C5F31303C1F3D8
:100550001300C1F30A5640F4801543F48013A7EB4F
:100560000608101BD64608F2FD3873EB050002D3CF
:1005700008F1010801E092185B41B8F1000F03DABD
:1005800000200146BDE8F08D00204FF480110646A2
:1005900084460EE0171B73EB050705D3121B63EBB4
:1005A000050306434CEA010C49084FEA3000921853
:1005B0005B4150EA0107EDD152EA030012D082EA12
:1005C000040083EA0501084305D0101BAB4106D2A5
:1005D0000122002306E000224FF0004302E06FF00A
:1005E000010253101AEB06004CEB085110EB0A0005
:1005F00041EB0B01BDE8F04D00F088B8C1F30A52A1
:10060000C1F3130140F2FF3341F480119A4202DA40
:1006100000200146704740F233439A42A2F233422F
:1006200002DC524200F03BB800F02AB830B5041E9C
:1006300071F1000404DB4FF00044404264EB01011F
:10064000141E73F1000405DB1C464FF000435242B8
:1006500063EB0403994208BF904230BD064C074D3E
:1006600006E0E06840F0010394E807009847103482
:10067000AC42F6D3FFF73EFD7C1800089C1800083A
:10068000202A04DB203A00FA02F100207047914052
:10069000C2F1200320FA03F3194390407047202A47
:1006A00004DB203A21FA02F00021704721FA02F31C
:1006B000D040C2F120029140084319467047202AD9
:1006C00006DBCB17203A41FA02F043EAE07306E07A
:1006D00041FA02F3D040C2F120029140084319468A
:1006E0007047000002681144137801601846704793
:1006F000D160044951610449116200211161114620
:1007000000F066B8E5060008C707000810B5141E1B
:1007100073F1000408DA401C41F1000192185B41BA
:100720001A4301D120F0010010BD2DE9F04D924691
:100730009B4611B1B1FA81F202E0B0FA80F22032A8
:100740009046FFF79DFF04460F4640EA0A0041EA43
:100750000B0153465A46084313D0114653EA010091
:1007600019D0C8F140025046FFF799FF05460E46E2
:10077000504659464246FFF783FF084305D0012003
:1007800004E020463946BDE8F08D0020054346EAE6
:10079000E0762C4337430A986305E40AA0EB08008F
:1007A0000022FD0A44EA47540A3002D500200146DF
:1007B000E9E7010510196941DDE9084500196941BA
:1007C000BDE8F04DA2E7C0B24FF4F05100F096B989
:1007D0002DE9F34F8BB04FF0000801F10C000C46EF
:1007E0004FF0010B46460DF1080A019062690121A4
:1007F00001989047051E2DD0252D2CD0216A8847C1
:10080000C0B16269012101989047216A8847002898
:10081000F7D1411E62690198904700E0761CA169FA
:100820000B988847216A88470028F7D1E1690B981F
:100830008847DBE7A1690B9888470746A84201D1A2
:10084000761CD3E7E1690B9888477F1C02D1B8F189
:10085000000F6FD046E1002762693D463946019896
:1008600090472A2804D16269012101989047012507
:10087000DFF884926269012101989047A0F130016C
:100880000A290AD24F45E5DC07EB870100EB410757
:10089000303FDFD445F01005ECE7E90601D46FF0F6
:1008A00000476C280AD04C2814D0682815D06A2834
:1008B0000DD074281CD07A281AD01DE0626901215D
:1008C000019890476C2802D045F0040514E045F0EB
:1008D00002050DE045F020050AE06269012101985A
:1008E0009047682802D045F0080505E045F400650A
:1008F0006269012101989047C4E9015765283DD0FC
:1009000019DC58287AD00CDC452837D004DC25289F
:1009100026D0412831D131E046282FD047282CD18C
:100920002CE05B2877D0612828D063287CD064280D
:1009300023D15AE0D0E06F2848D008DC66281DD0CB
:1009400067281BD0692821D06E2816D127E070288F
:1009500045D0732868D0752847D078280DD14DE050
:10096000A1690B988847054625283FF469AFE169DE
:100970000B9888476D1C3FF46AAFB3E023466A4684
:100980006FF001000B99AFF300809EE045F040004E
:100990006060A80723464FF0000236D43EE0E80727
:1009A0007FF447AF2068011D21600068290501D54B
:1009B00006701BE7290701D5068017E7A90703D5AD
:1009C000F117C0E9006111E706600FE745F040004C
:1009D0006060A80723464FF0080216D41EE040F6D8
:1009E0000E0125EA0100606016E045F040006060FD
:1009F000A80723464FF00A0207D40FE045F0400055
:100A00006060A80708D5234610226FF001000B99FB
:100A1000AFF3008059E007E0234610226FF0010099
:100A20000B99AFF3008050E04FF000094F464B4662
:100A3000632802D05B2806D040E0E80601D40120FC
:100A4000A06001273AE062690121019890475E2881
:100A500005D14FF001096269494601989047216923
:100A600039B900210A46534643F82120491C082978
:100A7000FADBB0B3216969B9C11700EBD162531138
:100A80000AEB830122F01F02821A01200B689040BA
:100A900003430B6062690121019890475D28E8D10A
:100AA000B9F1000F09D00020514651F82020D2435F
:100AB00041F82020401C0828F7DB02AB22460097B3
:100AC0006FF001000B99FFF74FFB00280CDA401C78
:100AD00008D1BBF1000F05D04FF0FF300DB0BDE8DD
:100AE000F08FFFE74046F9E7E90701D108F1010877
:100AF00006444FF0000B79E6CCCCCC0C7F2801D912
:100B0000002208E0064A02EB5002C007127800D12A
:100B1000120902F00F0201209040084070470000C7
:100B20003C18000800BFFEE7704700BFFEE700BFAB
:100B3000FEE7704710B54FF4A06000F001F810BD5B
:100B400002490143024A1160704700000000FA05A3
:100B50000CED00E07047704710B500F001F810BDD3
:100B60000CB50020019000903348006840F48030BC
:100B70003149086000BF3048006800F40030009040
:100B80000198401C0190009818B90198B0F5A06F29
:100B9000F1D12948006800F4003010B10120009024
:100BA00001E0002000900098012843D1234800680C
:100BB00040F01000214908600846006820F003005A
:100BC00008600846006840F0020008601A48406863
:100BD000194948600846406848600846406840F443
:100BE000806048600846406820F47C1048600846F1
:100BF000406840F4E81048600846006840F08070A3
:100C0000086000BF0C48006800F000700028F9D0B0
:100C10000948406820F003000749486008464068DA
:100C200040F00200486000BF0348406800F00C003C
:100C30000828F9D10CBD000000100240002002403D
:100C4000042808D14FF0E021096941F004014FF078
:100C5000E022116107E04FF0E021096921F0040171
:100C60004FF0E022116170477047000010B5134843
:100C7000006840F0010011490860084640681049CA
:100C800008400E494860084600680E4908400B4974
:100C900008600846006820F4802008600846406824
:100CA00020F4FE0048604FF41F008860FFF754FFF7
:100CB0004FF000600449086010BD000000100240C1
:100CC0000000FFF8FFFFF6FE08ED00E010B501217F
:100CD000144800F032F818B30121124800F02AF845
:100CE0001148007828B111480078401C0F4908705D
:100CF00004E00E480078401E0C4908700B4800784C
:100D0000632802DB0020084908700848007810B901
:100D100001200549087005480178054800F01EF8D3
:100D200010BD00000004004031000020320000200F
:100D3000002C0140CA430282704730B502460020B1
:100D400000230024158A05EA0103958905EA0104B8
:100D500013B10CB1012000E0002030BD01877047C5
:100D600010B540F225511D4800F03EF810B31B4865
:100D700000F064F8C4B21A48007800F08000C8B9E6
:100D80001748007800F0400060B10A2C03D0002022
:100D90001349087020E01248007840F080001049A4
:100DA000087019E00D2C06D10D48007840F0400085
:100DB0000B49087010E00A48007800F03F0009492C
:100DC0000C5407480078401C054908700846007814
:100DD0003F2801DD0020087010BD000000380140F0
:100DE0004A0000206A00002070B50246002400235B
:100DF0000025002040F66A16B14200D100BFC1F3C1
:100E0000421501F01F03012606FA03F3012D02D15A
:100E10009689334006E0022D02D1168A334001E064
:100E2000968A33400C12012606FA04F416883440E0
:100E300013B10CB1012000E0002070BD014688888C
:100E4000C0F30800704700BFFEE700000FB4054B79
:100E500010B503A9044A029800F0DCF810BC5DF854
:100E600014FB0000C11700083C0000200020704760
:100E700002E008C8121F08C1002AFAD17047704763
:100E8000002001E001C1121F002AFBD170470000C1
:100E90002DE9FF5F82B00021DDE90430020DDDF8AD
:100EA00040B0034318D044F61050A2F2FF32424340
:100EB0001514119801281FD0A5EB0B00401C5FEA08
:100EC000000A4FF000064E4FDFF83891B04650460A
:100ED00015D5CAF1000413E0119801244AA3012892
:100EE00001D16FEA0B010298119AC0E90031C0E903
:100EF000024206B0BDE8F09FCBF10000DFE70446F8
:100F00000021404A491842EB0450CDE9001012E09C
:100F1000E00707D032463B4640464946FFF78DFA88
:100F20008046894632463B4610461946FFF785FA09
:100F300006460F466410002CEAD1DDE90401DDE924
:100F40000023BAF1000F06DAFFF777FA42464B4664
:100F5000FFF773FA05E0FFF7E2FA42464B46FFF768
:100F6000DEFA04460E460022284BFFF75FFB03D84B
:100F70004FF0FF30014607E00022254B2046314666
:100F8000FFF7B4F9FFF73AFB102409E0002C0ADB65
:100F90000A220023FFF76EF9039B30321A55641EB4
:100FA00050EA0102F2D1641C039AC4F11103144403
:100FB000119A012A03D0012208430DD10AE0084307
:100FC00004D000204FF0110B119072E7A3EB0B053A
:100FD0006D1E0DE05B4504DD4FF0000205F10105DB
:100FE00004E003DA4FF00002A5F10105002AECD07D
:100FF00002981199C0E90231C0E9004579E7000083
:10100000000014400000F03F300000000000F043FA
:101010000000E03F2DE9FF4F95B09B46894606460C
:1010200000250FE2252877D100242746F84A012120
:10103000059400E0044316F8013F203B01FA03F059
:101040001042F7D130782A2811D06FF02F03307872
:10105000A0F13002092A16D8059A44F0020402EBE6
:10106000820203EB42021044761C0590EFE759F828
:10107000042B0592002A03DA504244F400540590F0
:1010800044F00204761C30782E2816D116F8010F91
:1010900044F004042A280DD06FF02F023078A0F11C
:1010A0003003092B09D807EB870302EB4303C7186A
:1010B000761CF3E759F8047B761C30786C280FD047
:1010C00006DC4C2817D068280DD06A2814D104E01B
:1010D000742810D07A280FD10DE044F400140AE0EF
:1010E00044F4801401E044F440147278824202D146
:1010F00004F58014761C761C307866280BD013DC3F
:10110000582877D009DC002875D04528F6D0462825
:10111000F4D047281AD19DE118E0632835D064281F
:1011200079D0652812D195E1702873D008DC672842
:10113000F1D069286FD06E280DD06F2806D1B5E0A8
:1011400073282CD0752875D0782874D05A461799F2
:1011500090476D1C75E1C4F30250022809D00328A2
:101160000DD0D9F8001004280DD00D6009F1040944
:1011700067E1D9F80010EA17C1E90052F6E7D9F89B
:1011800000100D80F2E70D70F0E719F8041B8DF8E0
:10119000001000208DF80100EA46012003E059F814
:1011A00004AB4FF0FF3061074FF0000102D40DE0B7
:1011B00008F101018846B9420FDA8045F8DB1AF8D8
:1011C00008100029F4D108E008F1010188468142A5
:1011D000FADB1AF808100029F6D105985B46A0EB57
:1011E000080721463846179A00F094FA284400EB85
:1011F000080507E04DE029E10DE01AF8010B5A4619
:1012000017999047B8F10108F7D25B462146384656
:10121000179A13E142E00A220092C4F302524FF0FF
:10122000000A022A08D059F804CB032A4FEAEC71CD
:101230000AD00DE029E02AE009F1070121F00702B8
:10124000F2E802C1914609E00FFA8CFC4FEAEC711A
:10125000042A03D14FFA8CFC4FEAEC71002907DA1B
:101260000A460021DCF1000C61EB02012D2202E0B4
:10127000220504D52B228DF80420012203E0E20789
:1012800001D02022F7E7904659E00A2102E010221F
:101290000DE010214FF0000A00910BE010224FF0FA
:1012A000000A44F004040827009203E008224FF0EB
:1012B000000A0092C4F30252022A05D059F804CB66
:1012C0000021032A08D009E009F1070121F00702F3
:1012D000F2E802C1914605E01FFA8CFC042A01D114
:1012E0000CF0FF0C4FF00008220728D5702806D01C
:1012F000009B83F0100353EA0A0305D00EE040225E
:101300008DF80420012208E05CEA010206D03022B8
:101310008DF804208DF8050002229046009B83F092
:10132000080353EA0A030AD15CEA010201D1620709
:1013300005D530228DF804204FF001087F1E582873
:1013400004D034A003900EA802900DE036A0F9E777
:1013500053466046009AFEF78DFF84460398825CF0
:101360000298401E029002705CEA0100F0D10298DF
:1013700006A9081A00F1200A600702D524F4803477
:1013800000E00127574502DDA7EB0A0000E000203E
:1013900000EB0A01009005984144401A0590E003D3
:1013A00006D45B462146179A059800F0B3F9054428
:1013B000002706E001A85A46C05D179990476D1CAA
:1013C0007F1C4745F6DBE0030CD55B462146179AA8
:1013D000059800F09FF9054404E030205A4617991B
:1013E00090476D1C0099481E00900029F5DC08E02C
:1013F000029802995A460078491C02911799904721
:101400006D1CBAF10001AAF1010AF1DC65E10000EE
:1014100009280100303132333435363738396162CA
:10142000636465660000000030313233343536378E
:1014300038394142434445460000000000F058F965
:101440000544761C307800287FF4ECAD19B02846AE
:10145000BDE8F08F620700D4062709F1070222F0E9
:10146000070CFCE80223E14603F000485FEA080CA1
:1014700002D00FF2702C0DE05FEA045C02D50FF28F
:10148000682C07E05FEAC47C02D00FF2602C01E018
:10149000AFF2700C4FF0FF3823F00043CDF850C08E
:1014A00065280CD006DC452809D046281DD04728E1
:1014B0003DD13DE0662818D067287ED138E0002174
:1014C000112F01DB112000E0781CCDE9000106A9F5
:1014D0000EA8FFF7DDFCDDE90F010E9A0391002154
:1014E000009207F1010A04914DE04FF0004000978F
:1014F000CDE9011006A90EA8FFF7CAFCDDE90F022D
:1015000003920E9B11990022DDF80CA00093049227
:1015100011B9791C00EB010AB7EB0A0004D4C0F141
:10152000FF3007F1010A0490AAEB0700019044E0A4
:10153000012F00DA01270021112F01DD112000E029
:101540003846CDE9000106A90EA8FFF7A1FCDDE9A8
:101550000F010E9A0391002104910092BA462107CF
:101560000CD40399514500DA8A46BAF1010F05DD22
:10157000009AAAF10101515C302908D0B84202DA80
:1015800010F1040F06DA0121CDE9011015E0AAF1EE
:101590000101E9E7002805DC049901440491AAEB64
:1015A000000102E0411C514500DD8A460499401AC1
:1015B000401C01904FF000400290200704D4019895
:1015C000504501DBCDF8048000208DF84F000298D3
:1015D0000DF14F07B0F1004F25D02B200E9002984F
:1015E0004FF0020800280CDA404202902D200E90A5
:1015F00007E00A210298FEF727FE3031029007F833
:10160000011DB8F10001A8F10108F2DC02980028E0
:10161000EFD1791E0E980870307800F0200040F06D
:10162000450007F8020D12A8C01B00F10708149826
:10163000007800B1012000EB0A01019801EBE07194
:1016400005984144401A401E0590E00306D45B46CD
:101650002146179A059800F05DF805441498007823
:1016600018B15A46179990476D1CE00324D55B4684
:101670002146179A059800F04DF805441CE004989F
:10168000002807DBDDE90301884203DD0098405CA8
:10169000179901E0179930205A469047049805F1B0
:1016A0000105401C04900198401E019004D12E2099
:1016B0005A46179990476D1CBAF10001AAF1010A28
:1016C000DDDC05E017F8010B5A46179990476D1CB1
:1016D000B8F10001A8F10108F4DC5B462146179A35
:1016E0000598ABE62D0000002B0000002000000054
:1016F0002DE9F041044600251E461746880404D40F
:1017000005E039462020B0476D1C641EF9D52846F7
:10171000BDE8F0812DE9F041044600251E469046C3
:10172000C80301D5302700E02027880404D505E050
:1017300041463846B0476D1C641EF9D52846BDE8C1
:10174000F081000010B504466FF00400FFF778FA4E
:10175000E11704EB5171C1F3C701074A117010463C
:10176000007800EB4001C1EBC0104FF6FF7101EAB9
:10177000C0000249088010BD34000020360000205F
:10178000014600BF00BF0C4800680C4A904201D1DE
:10179000002000E001200028F4D000BF4FF0FF300F
:1017A000054A1268054B9A4204D0034A10681A464B
:1017B000014B1A6000BF704738000020A55AA55A97
:1017C000074A126802F0807242B100BF4FF06042D7
:1017D0001268002AFAD04FF060431870704700007A
:1017E000FCED00E000BF4820FFF7ACFFFFF7A2F9D7
:1017F0000AA0FFF72BFB10E00C48FFF727FB1E2188
:101800000B48FEF796FC0A490AA0FEF79DFC0A4821
:10181000FFF71CFB0648FFF719FBEDE70D0A4865CB
:101820006C6C6F20576F726C640D0A000000002012
:101830004C000020257300001E000020DDDDDDDDF2
:10184000DCBBBBDDDDDDDDDDDDDDDDDD9888888851
:1018500088888888777777777788888885555556F8
:10186000666666666666666666688888833333324F
:1018700022222222222222222228888D9C1800083D
:10188000000000204C000000700E0008E81800085E
:101890004C00002064040000800E00080A0D0A0DB0
:1018A000506C6561736520656E74657220796F7523
:1018B00072206E616D653A0000000A0D596F7572F5
:1018C000206E616D65206973203A200008010000D8
:1018D00000000000A55AA55A00000000000000000A
:0818E000000000000000000000
:04000005080000ED02
:00000001FF
