:020000040800F2
:10300000C00E0020893100081B3500084734000835
:1030100019350008B9320008353A000800000000F0
:1030200000000000000000000000000081370008E0
:10303000BB32000800000000CD350008453800080C
:10304000A3310008A3310008A3310008A331000810
:10305000A3310008A3310008A3310008A331000800
:10306000A3310008A3310008A3310008A3310008F0
:10307000A3310008A3310008A3310008A3310008E0
:10308000A3310008A3310008A3310008A3310008D0
:10309000A3310008A3310008A3310008A3310008C0
:1030A000A3310008A3310008A3310008A3310008B0
:1030B000A3310008A3310008A3310008A3310008A0
:1030C000A3310008A3310008A3310008A331000890
:1030D000A331000899380008A3310008A331000883
:1030E000A3310008A3310008A331000800F002F862
:1030F00000F03AF80AA090E8000C82448344AAF158
:103100000107DA4501D100F02FF8AFF2090EBAE855
:103110000F0013F0010F18BFFB1A43F0010318470B
:10312000780A0000980A0000103A24BF78C878C1D5
:10313000FAD8520724BF30C830C144BF04680C60BD
:10314000704700000023002400250026103A28BF05
:1031500078C1FBD8520728BF30C148BF0B60704709
:103160001FB51FBD10B510BD00F074F81146FFF774
:10317000F7FF00F08BFC00F092F803B4FFF7F2FFCA
:1031800003BC00F058FC000009488047094800478C
:10319000FEE7FEE7FEE7FEE7FEE7FEE7FEE7FEE707
:1031A000FEE7FEE704480549054A064B7047000064
:1031B00049380008ED300008C0080020C00E00208B
:1031C000C00A0020C00A0020704700004FF0013CF8
:1031D00050F8042B51F8043B9A4221D1A2EB0C0386
:1031E000934313EACC1317D150F8042B51F8043B46
:1031F0009A4215D1A2EB0C03934313EACC130BD1E3
:1032000050F8042B51F8043B9A4209D1A2EB0C036D
:10321000934313EACC13DBD04FF00000704700BF9C
:10322000D01A01BAB1FA81F101F0180122FA01F0C5
:10323000CB40C1F12001DBB2C0B2C01A2CFA01F3BD
:10324000D11A914311EAC311E6D170477047704714
:1032500070477047754600F02BF8AE46050069468A
:10326000534620F00700854618B020B5FFF79AFFB7
:10327000BDE820404FF000064FF000074FF0000877
:103280004FF0000B21F00701AC46ACE8C009ACE8F8
:10329000C009ACE8C009ACE8C0098D46704710B55C
:1032A0000446AFF300802046BDE81040FFF765BF3D
:1032B000004870475C080020FEE7704770B505467F
:1032C0004FF43026304600F059F8042811D1094C4B
:1032D000206940F0020020616561206940F04000F3
:1032E0002061304600F04AF8216941F6FD72114034
:1032F000216170BD0020024008490420CA68D2073D
:1033000001D001207047CA68520701D502207047DA
:10331000C968C906FBD503207047000000200240A1
:103320000248016941F080010161704700200240BC
:10333000F0B506464FF400570D46384600F01EF82B
:1033400004280CD1064C206940F001002061358032
:10335000384600F013F82169BA1E11402161F0BD12
:103360000020024003480249416003494160704720
:103370002301674500200240AB89EFCD00B503462D
:10338000FFF7BAFF03E000BFFFF7B6FF5B1E01289F
:1033900003D0002B00D1052000BD002BF4D1FAE7AB
:1033A000F0B5CA78002502F00F03D20601D58A785D
:1033B00013430A784FF00F0E12F0FF0F4FF0010287
:1033C0001CD004680F8802FA05F63740B74211D1C5
:1033D0004FEA850C0EFA0CF724EA070703FA0CF4FF
:1033E0003C43CF78282F02D0482F02D002E046611C
:1033F00000E006616D1C082DE4D304600C88FF2CEE
:103400001ED944685FF0000606F1080702FA07F5C6
:103410000F882F40AF420FD14FEA860C0EFA0CF7FF
:10342000BC4303FA0CF73C43CF78282F00D1456109
:10343000CF78482F00D10561761C082EE4D3446074
:10344000F0BD01617047FEE701B5FFF78BFF012278
:103450006946034800F01EF9FFF762FF08BD00004F
:1034600000280008044610A1FFF7B0FE80B110A1AB
:103470002046FFF7ABFE70B10FA12046FFF7A6FE76
:1034800070B10FA12046FFF7A1FE00BF00F090F839
:103490004EF6EE6001E04CF6CC40FFF7D5FFF5E7C5
:1034A0004FF6FF70F9E70000757064617465000005
:1034B00065726173650000006D656E750000000047
:1034C00072756E617070000010B50020FFF7BCFFD0
:1034D000BDE810404FF440514FF0006000F05EB87E
:1034E00038B50121102000F073F84FF40054ADF806
:1034F000004010208DF803000320064D8DF80200D7
:1035000069462846FFF74CFF21462846FFF799FFFA
:1035100038BD000000100140FEE770474FF4A06086
:1035200000F032B870B50F23C47801780122F4B1ED
:10353000144C2468457804F4E064C4F5E064240A7B
:10354000C4F10406E3408478B5401C402C4301F1EB
:10355000E021230181F80034007800F01F018A4047
:103560004009800000F1E020C0F8002170BD01F0AA
:103570001F0082404809800000F1E020C0F880214F
:1035800070BD00000CED00E00249084302490860EC
:10359000704700000000FA050CED00E0024A1140FF
:1035A000014302480160704780FFFF1F08ED00E003
:1035B00004480168044A01F4E06111430160BFF36B
:1035C0004F8FFEE70CED00E00400FA0570470000A5
:1035D000044A0029916901D0014300E081439161CF
:1035E000704700000010024030B51F494A6812F0D1
:1035F0000C031E4A03D0042B01D0082B21D00260FB
:103600004A680F231A4C03EA1212A35C0268DA40DC
:1036100042604B68072505EA1323E35C22FA03F3B3
:1036200083604B6805EAD323E35CDA40C2604968F3
:10363000032303EA9131231F595CB2FBF1F10161CD
:1036400030BD4A684B6802F470124FF0020413F464
:10365000803F04EB924202D04B689B0301D5054B9F
:1036600000E0024B5A43CAE70010024000127A0001
:103670000900002000093D0010B5002306E000BF4E
:1036800030F8024B21F813405B1C9BB29342F7D3F6
:1036900010BD00002DE9F05FA0F1006415468A46D8
:1036A0008346B4F5002F52D2FFF75CFEE70AC4F35D
:1036B0004906C6F58064A54200D82C46DFF89490F0
:1036C0004FF0006000EBC72080464FF48062214934
:1036D000FFF7D2FF00204FF6FF7106E0331839F8EC
:1036E00013208A4203D1401C80B2A042F6D3A042EC
:1036F00025D24046FFF7E2FD0020494607E000BF23
:103700003AF810208319401C21F8132080B2A042FF
:10371000F6D3104940464FF4806200BF00F01CF819
:10372000A54210D0281B0AEB440AA344002685B208
:103730004FF480647F1CA542C2D82C46C0E72246C5
:1037400051465846EAE7BDE8F05FFFF7E9BDBDE83E
:10375000F09F00001C0000202DE9F04116460F46A6
:103760000546002408E000BF37F814102846FFF78C
:10377000DFFD641CA4B2AD1CB442F5D3BDE8F081FA
:10378000704700000CB500212648019100910268A5
:1037900042F4803202604FF4A063026802F4003207
:1037A0000092019A521C0192009A12B9019A9A420F
:1037B000F3D10268920333D5012100911A490A68B6
:1037C00042F010020A600A6822F003020A600A68E6
:1037D00042F002020A60416841604168416041680C
:1037E00041F480614160416821F47C11416041688D
:1037F00041F4E8114160016841F0807101600168A5
:103800008901FCD5416821F003014160416841F024
:10381000020141604168C1F381010229FAD10CBD66
:1038200000910CBD00100240002002404FF0E0214A
:103830000428086903D020F004000861704740F0B4
:103840000400FAE7704700000F4810B5016841F026
:103850000101016041680D4A1140416001680C4A54
:1038600011400160016821F480210160416821F468
:10387000FE0141604FF41F018160FFF783FF05499E
:103880004FF00060086010BD001002400000FFF81B
:10389000FFFFF6FE08ED00E070B5154C40F2255133
:1038A000204600F035F800280ED0204600F0BEF883
:1038B000C2B2104801780B0606D44C064FF0000344
:1038C00006D50A2A01D0037070BD41F080010DE0D9
:1038D0000D2A09D001F03F04074D491CC9B22A55F1
:1038E00001703F29EFD870BD41F04001017070BDFB
:1038F00000380140040000201C08002000298189B4
:1039000002D041F4005101E021F40051818170475F
:1039100030B501F01F0201240025C1F3421304FA5F
:1039200002F2012B0FD0022B0FD0838A4FEA112114
:103930000088134204FA01F400EA040001D000B147
:103940000125284630BD8389F0E7038AEEE710B5EC
:10395000C1F3421301F01F040121A140012B07D044
:10396000022B07D01430002A026805D00A4304E075
:103970000C30F8E71030F6E78A43026010BD000013
:1039800030B50446008A85B00D464CF6FF710840FC
:10399000E98801432182A1894EF6F3100140A888ED
:1039A0002A8910436A890A431043A081A08A4FF6EE
:1039B000FF410840A9890143A1826846FFF714FE30
:1039C0001948844201D1039800E00298A1890904B2
:1039D00000EBC00101EB0010296801D5490000E0AF
:1039E0008900B0FBF1F06422B0FBF2F109010B0990
:1039F0006FF018056B4300EB8300A3891D044FF0A3
:103A0000320306D503EBC000B0FBF2F000F0070074
:103A100005E003EB0010B0FBF2F000F00F000843EC
:103A2000208105B030BD0000003801408088C0F31F
:103A300008007047FEE7704710B504466FF00400B9
:103A4000FFF7F4FE0648E10801EB41020170C2EB0A
:103A5000C1114FF6FF7202EAC101418010BD0000A2
:103A6000000000200849498848434FF0E0214861A0
:103A70000020886101220A610A69D30701D0D203BC
:103A8000FAD5086188617047000000200024FFF724
:103A90001BFD4820FFF7D0FFFFF740FD4FF4E1305A
:103AA00000F02AF8FFF71CFD0026104DDFF84080DB
:103AB00032272878000604D52E700E48FFF7D2FC76
:103AC000F7E7641CA4B2B4FBF7F007FB104038B969
:103AD000D8F8B411404639B15FF00001C0F8B41114
:103AE0000A20FFF7BFFFE4E70121F7E70400002009
:103AF000000022421C08002070B5054686B0012156
:103B000044F20500FFF764FD4FF40070ADF81000BB
:103B100003248DF8124018201D4E8DF8130004A9BF
:103B20003046FFF73DFC3015ADF8100004208DF84D
:103B3000130004A93046FFF733FC25208DF814004C
:103B40008DF815408DF8164001208DF8170005A856
:103B5000FFF7E8FC0020ADF80400ADF80600ADF872
:103B60000800ADF80C000C200A4CADF80A000095D6
:103B700069462046FFF704FF012240F22551204606
:103B8000FFF7E5FE01212046FFF7B8FE06B070BD45
:103B90000008014000380140B83B00080000002048
:103BA0001C00000028310008D43B00081C00002045
:103BB000A40E0000443100080000000000020406CA
:103BC00008000000000102030401020304060708C4
:043BD00009000000E8
:04000005080030EDD2
:00000001FF
