:020000040800F2
:10000000F00E0020590B0008FD030008FF03000854
:1000100003040008070400080B04000800000000A7
:100020000000000000000000000000000F040008B5
:100030001104000800000000130400081504000863
:10004000730B0008730B0008730B0008730B000898
:10005000730B0008730B0008730B0008730B000888
:10006000730B0008730B0008730B0008730B000878
:10007000730B0008730B0008730B0008730B000868
:10008000730B0008730B0008730B0008730B000858
:10009000730B0008730B0008730B0008730B000848
:1000A000730B0008730B0008730B0008730B000838
:1000B000730B000893070008730B0008730B00080C
:1000C000730B0008730B0008730B0008730B000818
:1000D000730B0008A50A0008730B0008730B0008D7
:1000E000730B0008730B0008730B000800F002F894
:1000F00000F03FF80AA090E8000C82448344AAF183
:100100000107DA4501D100F034F8AFF2090EBAE880
:100110000F0013F0010F18BFFB1A43F0010318473B
:10012000F82B0000182C0000103A24BF78C878C1C2
:10013000FAD8520724BF30C830C144BF04680C60ED
:10014000704700000023002400250026103A28BF35
:1001500078C1FBD8520728BF30C148BF0B60704739
:10016000732902F07685002070471FB51FBD10B5BA
:1001700010BD02F0A1FD1146FFF7F7FF00F0EDF80A
:1001800002F0BFFD03B4FFF7F2FF03BC00F030FC48
:1001900091490978012906D0022926D0032946D0A1
:1001A000042970D165E002280DD18C49098840F2FC
:1001B000C622914201DB114602E0884909880A31D2
:1001C000864A11800CE003280AD184490988002955
:1001D00001DC002102E0814909880A397F4A118047
:1001E0007E4909887E4A118067E002280DD17D4949
:1001F000098840F2C622914201DB114602E07949AA
:1002000009880A31774A11800CE003280AD1754920
:100210000988002901DC002102E0724909880A39B5
:10022000704A11806F4909886D4A118045E00228A3
:100230000DD16D49098840F2C622914201DB114679
:1002400002E0694909880A31674A11800CE00328F5
:100250000AD165490988002901DC002102E06249D0
:1002600009880A39604A11805F4909885C4A11800F
:1002700023E002280ED15D49098840F2C62291424E
:1002800002DB114603E017E0584909880A31574A52
:1002900011800CE003280AD154490988002901DCA7
:1002A000002102E0514909880A39504A11804F491A
:1002B00009884B4A118000E000BF00BF704710B5AD
:1002C0000446012C11D14020494908704248007869
:1002D000303048700D2088700A20C87045A002F0A8
:1002E00039FC43480021016036E0434800883C491E
:1002F0000988884230D03A4800883F490880242045
:100300003B49087036480088642190FBF1F030309A
:100310003749487032480088642190FBF1F201FBB4
:1003200012000A2190FBF1F03030314988702C48DE
:1003300000880A2190FBF1F201FB120030302C49B9
:10034000C8700D2008710A2048712AA002F002FC32
:10035000274800210160818010BD00F0F9FB482092
:1003600000F0ECFA00F03EFB4FF4E13000F04EFB01
:1003700000F08CFA2FE000F09AFA012804D002284D
:1003800019D0032825D11DE013480078401C052111
:1003900090FBF1F201FB12000F490870084600784B
:1003A00008B9012001E00C4800780B4908700120D1
:1003B000FFF785FF0EE00220FFF7EAFE0220FFF7BD
:1003C0007EFF07E00320FFF7E3FE0320FFF777FF40
:1003D00000E000BF00BFCEE70000002008000020C2
:1003E000020000200A0000200C0000200400002071
:1003F000340000202573000006000020704700BF75
:10040000FEE700BFFEE700BFFEE700BFFEE7704764
:1004100070477047704700000CB5002001900090B5
:100420006B48006840F480306949086000BF684844
:10043000006800F4003000900198401C0190009882
:1004400018B90198B0F5A06FF1D16148006810F4B7
:10045000003F02D00120009001E0002000900098B1
:10046000012842D15B48006840F0100059490860FB
:100470000846006820F0030008600846006840F065
:100480000200086052484068514948600846406888
:1004900048600846406840F480604860084640680C
:1004A00020F47C1048600846406840F4E81048603A
:1004B0000846006840F08070086000BF444800684B
:1004C00010F0007FFAD04248406820F00300404915
:1004D00048600846406840F00200486000BF3C4861
:1004E000406800F00C000828F9D10CBD10B5FFF7EA
:1004F00093FF10BD10B53648006840F00100344944
:100500000860084640683449084031494860084658
:100510000068324908402E4908600846006820F407
:10052000802008600846406820F4FE0048604FF4D0
:100530001F008860FFF7DAFF4FF00060284908606D
:1005400010BD10B5002100200022214B5B6803F094
:100550000C0121B1042906D0082928D107E0214B3C
:10056000214C236027E01F4B1F4C236023E0184BD6
:100570005B6803F47010164B5B6803F4803202234F
:1005800003EB904022B9194B4343174C23600DE015
:100590000F4B5B6813F4003F04D0144B4343124CE1
:1005A000236003E00F4B43430F4C236003E00D4BEC
:1005B0000D4C236000BF00BF054B5B68C3F3031302
:1005C0000B4CE15C084B1B68CB40074C236010BD13
:1005D00000100240002002400000FFF8FFFFF6FE7E
:1005E00008ED00E000127A001000002000093D0034
:1005F000140000200146088870472DE9F0410546A7
:100600000E461746002407E036F81410284600F07E
:1006100098FCAD1C601C84B2BC42F5DBBDE8F081E7
:1006200030B503460C461546002207E01846FFF792
:10063000E1FF24F812009B1C501C82B2AA42F5DB99
:1006400030BD2DE9F05F80468A461746B8F1006F4D
:1006500002D33748804501D3BDE8F09F00F029FB65
:10066000A8F1006B4FEADB25CBF34909C9F580649B
:10067000A74200DC3C464DE04FF0006101EBC52095
:100680004A142C49FFF7CCFF00260BE009EB0600CB
:10069000284931F81000A0F57F41FF3900D003E070
:1006A000701C86B2A642F1DB00BFA6421BDA4FF0F7
:1006B000006101EBC52000F041FB002608E03AF89C
:1006C000160006EB09011B4A22F81100701C86B2C5
:1006D000A642F4DB4FF0006101EBC5204A14154936
:1006E000FFF78BFF04E0224651464046FFF785FFA7
:1006F000A74200D10FE06D1C4FF000090AEB440A3D
:10070000A044381B87B2B7F5806F02DD4FF48064D8
:1007100000E03C46B0E700BF00F0D7FA00BF9BE71F
:1007200013B50446012201A92046FFF78AFF1CBD2C
:1007300000000808500000207FB505460C46012146
:10074000022001F098F8ADF80850ADF80440002000
:10075000ADF80A00ADF8060001A9484801F0BAF961
:1007600001221146454801F02CFD1D208DF80000A6
:1007700000208DF8010003208DF8020001208DF883
:100780000300684600F00DFA01213C4801F0FEFC30
:100790007FBD10B50121394801F0C1FF58B10121D9
:1007A000364801F0CDFF3648006808B9012000E066
:1007B00000203349086010BD30B589B005460C46AD
:1007C0000121022001F057F801210D2001F046F827
:1007D000C020ADF8200018208DF8230003208DF8EC
:1007E000220008A9274800F083FD0320ADF820006F
:1007F00018208DF8230003208DF8220008A9224834
:1008000000F076FDADF81850ADF814400020ADF8BA
:100810001A00ADF8160005A9184801F05BF9702020
:10082000ADF804000120ADF806000020ADF80C0082
:1008300001A9124801F08BF901A9104801F0C9F98A
:1008400001A90E4801F012FA01A90C4801F059FA69
:1008500008210A4801F0CAFD0821084801F0CFFD2F
:100860000821064801F0D8FD0821044801F0DDFD0B
:100870000121024801F08AFC09B030BD00040040AB
:10088000B401224200080140000C014008B50121DA
:10089000082000F0E3FF4FF47050ADF8000048204E
:1008A0008DF8030069461F4800F022FD08BD10B511
:1008B0001D48007828B31D48006840B11C480068F6
:1008C00028B11C48006810B11B480068C8B90A204C
:1008D00000F04EF80020144908701448006808B968
:1008E000012010BD1248006808B90220F9E711483C
:1008F000006808B90320F4E70F48006878B90420BD
:10090000EFE70A480068012809D109480068012872
:1009100005D108480068012801D10349087000206A
:10092000DFE70000000C0140240000202881214264
:100930002C812142308121423481214210B504466C
:100940006FF0040000F078F9E11704EB5171C1F386
:10095000C701224A11701046007800EB4001C1EB3C
:10096000C0104FF6FF7101EAC0001D49088010BD9C
:1009700001461B4A12884A434FF0E0235A61002285
:100980009A6101221A6100BF4FF0E022106910F055
:10099000010F02D010F4803FF6D000224FF0E02388
:1009A0001A619A61704701460C4A12784A434FF027
:1009B000E0235A6100229A6101221A6100BF4FF0C0
:1009C000E022106910F0010F02D010F4803FF6D041
:1009D00000224FF0E0231A619A6170472600002040
:1009E0002800002010B54FF4A06000F0D5F810BD2D
:1009F000014600BF704700BF494A128812F0400FFD
:100A0000FAD0C2B2464B1B1D1A80704710B586B093
:100A10000446012144F2050000F020FF4FF400706D
:100A2000ADF8140003208DF8160018208DF817007B
:100A300005A93C4800F05CFC4FF48060ADF8140060
:100A400004208DF8170005A9364800F051FC252038
:100A50008DF8000003208DF801008DF802000120C0
:100A60008DF80300684600F09CF801940020ADF872
:100A70000800ADF80A00ADF80C00ADF810000C202D
:100A8000ADF80E0001A9264801F0A1FE012240F2B6
:100A90002551234801F033FF0121214801F023FFB4
:100AA00006B010BD10B540F225511D4802F00CF8FB
:100AB00010B31B4801F088FFC4B21B48007810F047
:100AC000800F2BD11848007810F0400F0CD00A2C62
:100AD00003D000201449087020E01348007840F04B
:100AE00080001149087019E00D2C06D10E480078DD
:100AF00040F040000C49087010E00B48007800F00E
:100B00003F000A490C5408480078401C0649087008
:100B1000084600783F2801DD0020087010BD000065
:100B200000380140000801402C000020500800203F
:100B300001B500F0BEF8012269460648FFF781FDC5
:100B400000F0C3F808BD10B50248FFF753FD10BD13
:100B50007047704700280008094880470948004747
:100B6000FEE7FEE7FEE7FEE7FEE7FEE7FEE7FEE75D
:100B7000FEE7FEE704480549054A064B70470000BA
:100B8000F5040008ED000008F0080020F00E002039
:100B9000F00A0020F00A002031490143314A116077
:100BA000704770B5002100230F22C4780CB32D4C80
:100BB000246804F4E064C4F5E064210AC1F104038C
:100BC000CA40447804FA03F18478144021430901AF
:100BD000254C0678A155047804F01F050124AC408B
:100BE00005786D114FF0E02606EB8505C5F800414C
:100BF00009E0047804F01F050124AC401B4D067881
:100C0000761145F8264070BD194A0A400243154B3B
:100C10001B1F1A60704739B1124A121D1268024335
:100C2000104B1B1D1A6006E00E4A121D126882430B
:100C30000C4B1B1D1A607047042808D14FF0E021AF
:100C4000096941F004014FF0E022116107E04FF023
:100C5000E021096921F004014FF0E02211617047A1
:100C60000000FA050CED00E000E400E080E100E0A7
:100C700080FFFF1F01460020FE4A106800F0380088
:100C8000084310607047FB49096821F00801F94AE0
:100C9000116011460968014311607047F549096800
:100CA00021F01001F34A11601146096801431160F7
:100CB0007047F148EF494860F04848607047EE4897
:100CC000EC494860ED4848607047EA48006940F0E8
:100CD0008000E84908617047E648006940F08000FC
:100CE000E449086170470420E249C96811F0010F26
:100CF00001D001200EE0DF49C96811F0040F01D0D6
:100D0000022007E0DB49C96811F0100F01D0032071
:100D100000E00420704700B502460423FFF7E3FF1C
:100D2000034603E0FFF7DFFF0346521E012B01D10C
:100D3000002AF7D102B90523184600BD30B5044694
:100D400004254FF43020FFF7E6FF0546042D17D1A8
:100D5000C848006940F00200C6490861084644617D
:100D6000006940F0400008614FF43020FFF7D3FFE6
:100D70000546C048006941F6FD710840BD4908615B
:100D8000284630BD10B504244FF43020FFF7C3FFD0
:100D90000446042C16D1B748006940F00400B54958
:100DA00008610846006940F0400008614FF43020B7
:100DB000FFF7B1FF0446AF48006941F6FB710840F8
:100DC000AC490861204610BD00B502460423FFF778
:100DD0008AFF034603E0FFF786FF0346521E012BFE
:100DE00001D1002AF7D102B90523184600BD10B57C
:100DF00004244FF43020FFF7E7FF0446042C16D1FB
:100E00009C48006940F004009A490861084600695E
:100E100040F0400008614FF43020FFF7D5FF044652
:100E20009448006941F6FB710840924908612046E8
:100E300010BD00208F49C96911F0020F01D00120B7
:100E400000E00020704730B5A5250424FFF7F1FF2E
:100E500000B100254FF43020FFF75DFF0446042C5D
:100E60003AD185488349886084488860084600698B
:100E700040F0200008610846006940F04000086129
:100E80004FF43020FFF747FF0446042C1BD179486C
:100E9000006941F6DF71084076490861084600693B
:100EA00040F01000086176480580E002FFF733FF4C
:100EB0000446052C10D06F48006941F6EF710840D8
:100EC0006C49086108E0052C06D06A48006941F6C3
:100ED000EF71084067490861204630BD78B5064685
:100EE0000C46042500200090E802FFF714FF054699
:100EF000042D24D15F48006940F001005D4908617C
:100F00003480E802FFF707FF0546042D10D1B01C1E
:100F10000090200C00990880E802FFF7FCFE0546CF
:100F20005448006941F6FE7108405249086106E0E4
:100F30005048006941F6FE7108404E490861284654
:100F400078BD70B504460D460426F002FFF7E3FEB7
:100F50000646042E11D14748006940F0010045497A
:100F600008612580F002FFF7D6FE06464148006979
:100F700041F6FE7108403F490861304670BD70B5CA
:100F800005460E460424E002FFF7C5FE0446042C85
:100F900017D1394837498860384888600846006961
:100FA00040F0100008612E80E002FFF7B4FE044616
:100FB000052C06D02F48006941F6EF7108402D49F5
:100FC0000861204670BD2DE9F04304464FF6FF76D8
:100FD0003746B046B1460425E443E6B2C4F30727DA
:100FE000C4F307484FEA1469E802FFF794FE054688
:100FF000042D49D120481F49886020488860084650
:10100000006940F010000861FF2E06D01C4808302F
:101010000680E802FFF77FFE0546042D08D1FF2F6A
:1010200006D017480A300780E802FFF774FE05462D
:10103000042D0AD1B8F1FF0F07D011480C30A0F8E9
:101040000080E802FFF767FE0546042D0AD1B9F1DA
:10105000FF0F07D00A480E30A0F80090E802FFF713
:101060005AFE0546052D0FD00248006941F6EF7182
:10107000084007E00020024023016745AB89EFCD1F
:1010800000F8FF1F664908612846BDE8F08330B5C7
:10109000054604244FF43020FFF73DFE0446042C9F
:1010A00041D160485E4988605F48886008460069B1
:1010B00040F0200008610846006940F040000861E7
:1010C0004FF43020FFF727FE0446042C22D1544869
:1010D000006941F6DF71084051490861084600691E
:1010E00040F0100008611DB100205049088002E066
:1010F000A5204E4908804FF43020FFF70CFE04462F
:10110000052C10D04648006941F6EF71084044496B
:10111000086108E0052C06D04148006941F6DF71FE
:1011200008403F490861204630BDF0B505460E46EF
:10113000174604243B483A4988603B488860E002EF
:10114000FFF7E9FD0446042C19D13548006940F049
:1011500010003349086147F0F80030432843334911
:10116000891C0880E002FFF7D6FD0446052C06D056
:101170002B48006941F6EF71084029490861204673
:10118000F0BD2748C069800870472548006A70474D
:1011900000202349096811F0200F01D0012000E050
:1011A0000020704729B11E4A126902431C4B1A6184
:1011B00004E01B4A12698243194B1A6170470146C9
:1011C0000020012908D1164AD26912F0010F01D07E
:1011D000012008E0002006E0114AD2680A4201D04E
:1011E000012000E0002070470D49C86070470420CE
:1011F0000B49C96811F0010F01D001200EE0084928
:10120000C96811F0040F01D0022007E00449C96841
:1012100011F0100F01D0032000E0042070470000FF
:101220000020024023016745AB89EFCD00F8FF1F86
:1012300010B50446CA48844208D10121042000F0B8
:1012400027FB0021042000F023FB46E0C548844230
:1012500008D10121082000F01BFB0021082000F02C
:1012600017FB3AE0C048844208D10121102000F069
:101270000FFB0021102000F00BFB2EE0BB48844246
:1012800008D10121202000F003FB0021202000F0E4
:10129000FFFA22E0B648844208D10121402000F044
:1012A000F7FA0021402000F0F3FA16E0B14884423A
:1012B00008D10121802000F0EBFA0021802000F00D
:1012C000E7FA0AE0AC48844207D10121801500F01A
:1012D000DFFA0021A01500F0DBFA10BD10B50121E6
:1012E000084600F0D5FA0021012000F0D1FA10BD27
:1012F0002DE9F041024600250026002000230024AD
:10130000002791F803C00CF00F0591F803C01CF002
:10131000100F03D091F802C04CEA050591F800C007
:10132000BCF1000F31D0146800202BE04FF0010C0D
:101330000CFA00F3B1F800C00CEA03069E4220D17B
:1013400083004FF00F0C0CFA03F7BC4305FA03FCC3
:101350004CEA040491F803C0BCF1280F06D14FF009
:10136000010C0CFA00FCC2F814C00AE091F803C0AA
:10137000BCF1480F05D14FF0010C0CFA00FCC2F88B
:1013800010C0401C0828D1D31460B1F800C0BCF1D3
:10139000FF0F34DD546800202EE000F1080C4FF000
:1013A000010808FA0CF3B1F800C00CEA03069E42EB
:1013B00021D183004FF00F0C0CFA03F7BC4305FA60
:1013C00003FC4CEA040491F803C0BCF1280F05D1DA
:1013D00000F1080C08FA0CF8C2F8148091F803C068
:1013E000BCF1480F07D100F1080C4FF0010808FAD2
:1013F0000CF8C2F81080401C0828CED35460BDE819
:10140000F0814FF6FF710180022181700421C170CB
:1014100070470246002093680B4201D0012000E093
:10142000002070470146886880B27047024600205D
:10143000D3680B4201D0012000E000207047014634
:10144000C86880B2704701617047416170470AB156
:10145000016100E041617047C16070474FF4803224
:101460000A438261816182618269826970470246B2
:101470000020424B18684FF68073184040EA021073
:1014800008433E4B186070473D49C8617047F0B54E
:101490000A46002300240021002500F00046B6F192
:1014A000004F02D1354EF16901E0344E7168C0F34E
:1014B000034583B200F44016B6F5401F08D121F071
:1014C00070612E4E766826F070662C4F7E6012E0BA
:1014D00000F48016B6F5801F06D1032606FA05F43F
:1014E000A14341F0706106E0460D360103FA06F6AD
:1014F000B14341F0706122B1460D360103FA06F6A0
:10150000314300F00046B6F1004F02D11B4EF161AD
:1015100001E01A4E7160F0BD30B500228B071C0F40
:101520000F2303FA04F2154B08338C1053F82430C0
:101530009343124C08348D1044F8253023468C1008
:1015400053F824308C07240F00FA04F423430B4C87
:1015500008348D1044F8253030BD0A4908607047C2
:1015600000080140000C014000100140001401403F
:1015700000180140001C0140002001400000014013
:1015800000002042DC002042DD48006840F00100FD
:10159000DB49086008464068DA490840D849486095
:1015A00008460068D8490840D549086008460068E0
:1015B00020F4802008600846406820F4FE0048605F
:1015C0004FF41F0088607047CD49096821F48031CD
:1015D000CB4A11601146096821F480211160B0F5F1
:1015E000803F03D0B0F5802F0ED106E0C4490968D2
:1015F00041F48031C24A116007E0C149096841F4F1
:10160000A021BF4A116000E000BF00BF704710B5C5
:1016100001460022002300204A11012A02D1B84CC1
:10162000236806E0022A02D1B54C236A01E0B44CDB
:10163000636A01F01F02012494401C4201D0012082
:1016400000E0002010BD38B50020009000240025E7
:1016500000BF3120FFF7DBFF05460098401C0090DB
:101660000098B0F5A06F01D0002DF2D03120FFF727
:10167000CEFF08B1012400E00024204638BD014619
:1016800000209F4A106820F0F80040EAC100106076
:1016900070479E490860704702460020984B586882
:1016A00020F47C1042EA01031843954B58607047C0
:1016B00096490866704701460020914A506820F01C
:1016C00003000843506070478D48406800F00C00EC
:1016D0007047014600208A4A506820F0F000084315
:1016E0005060704701460020854A506820F4E06051
:1016F00008435060704701460020814A506820F43A
:10170000605040EAC1005060704729B17C4A527A6B
:1017100002437B4B5A7204E0794A527A8243784BF7
:101720005A7270477A490860704701460020744A2F
:10173000506820F440400843506070470021754ACB
:1017400011706F4A82F82010012802D0042808D1B5
:1017500003E001216F4A117004E005216D4A117008
:1017600000E000BF00BF70476B49086070476449E4
:10177000096A0143624A1162704767494439086047
:10178000704730B500210022002400235C4D6D68B5
:1017900005F00C0121B1042905D0082923D105E069
:1017A0005E4D056022E05D4D05601FE0544D6D68A3
:1017B00005F47012524D6D6805F48034022505EB76
:1017C00092421CB9564D554305600BE04C4D6D6877
:1017D00015F4003F03D0524D5543056002E04F4DD4
:1017E0005543056002E04D4D056000BF00BF444D0C
:1017F0006D6805F0F00109094A4D6B5C0568DD4034
:1018000045603F4D6D6805F4E061090A454D6B5C2C
:101810004568DD4085603A4D6D6805F46051C90A40
:10182000404D6B5C4568DD40C560354D6D6805F425
:101830004041890B3C4D6B5CC568B5FBF3F5056118
:1018400030BD29B12E4A526902432D4B5A6104E042
:101850002B4A526982432A4B5A61704729B1284A60
:1018600092690243264B9A6104E0254A92698243B9
:10187000234B9A61704729B1214AD2690243204B18
:10188000DA6104E01E4AD26982431D4BDA61704777
:1018900029B11B4AD2680243194BDA6004E0184AA6
:1018A000D2688243164BDA60704729B1144A126934
:1018B0000243134B1A6104E0114A12698243104B30
:1018C0001A61704714494039086070470F49C8646D
:1018D00070470B49C87170470948406A40F08070F2
:1018E00007494862704701460020054A92680A424B
:1018F00001D0012000E00020704701498872704744
:10190000001002400000FFF8FFFFF6FE0000424218
:10191000D8004242201002408004424200127A0065
:1019200000093D003A0000204A00002010B504469E
:10193000FE48844208D10121C014FFF7A9FF00210D
:10194000E014FFF7A5FFC4E0B4F1804F08D10121F6
:101950000846FFF7AAFF00210120FFF7A6FFB8E025
:10196000F348844208D101210220FFF79EFF0021A5
:101970000220FFF79AFFACE0EE48844208D1012133
:101980000420FFF792FF00210420FFF78EFFA0E064
:10199000E948844208D101210820FFF786FF002191
:1019A0000820FFF782FF94E0E448844208D1012137
:1019B0001020FFF77AFF00211020FFF776FF88E064
:1019C000DF48844208D101212020FFF76EFF00216B
:1019D0002020FFF76AFF7CE0DA48844208D1012129
:1019E0004014FFF755FF00216014FFF751FF70E02E
:1019F000D548844209D10121C804FFF749FF0021DD
:101A00004FF40020FFF744FF63E0D048844209D13F
:101A100001210805FFF73CFF00214FF48010FFF77C
:101A200037FF56E0CA48844209D101214805FFF733
:101A30002FFF00214FF40010FFF72AFF49E0C548AF
:101A4000844208D101214020FFF72FFF00214020D0
:101A5000FFF72BFF3DE0C048844208D101218020E0
:101A6000FFF723FF00218020FFF71FFF31E0BB4875
:101A7000844208D101218015FFF717FF0021A0152E
:101A8000FFF713FF25E0B648844209D1012108047D
:101A9000FFF7FEFE00214FF48030FFF7F9FE18E05B
:101AA000B048844209D101214804FFF7F1FE00212A
:101AB0004FF40030FFF7ECFE0BE0AB48844208D156
:101AC00001218804FFF7E4FE00214FF48020FFF796
:101AD000DFFE10BD00220288944B98420ED0994B35
:101AE00098420BD0B0F1804F08D0914B984205D06E
:101AF000904B984202D0904B984204D14FF68F738E
:101B00001A404B881A438D4B984207D08C4B984211
:101B100004D04FF6FF431A40CB881A4302808B88CB
:101B200083850B880385814B98420BD0854B984267
:101B300008D08B4B984205D08A4B984202D08A4BF2
:101B4000984201D10B7A038601238382704770B5D6
:101B5000002400220023058C4FF6FE7635400584D4
:101B6000028C8388048B4FF68F752C40B51E2C4059
:101B70000D882C43751E2A400D892A434D882A431F
:101B80006A4DA8420BD06F4DA84208D0744DA842B0
:101B900005D0744DA84202D0734DA84213D14FF620
:101BA000F7752A404D892A434FF6FB752A408D88E8
:101BB0002A434FF6FF652B404FF6FF552B408D898A
:101BC0002B43CD892B4383800483CD888586028473
:101BD00070BD70B5002400220023058C4FF6EF760F
:101BE00035400584028C8388048B48F6FF752C40B1
:101BF0004FF6FF452C400D884FF6FF7606EA052587
:101C00002C434FF6DF752A400D8906EA05152A4355
:101C10004D8806EA05152A43444DA84202D0494D95
:101C2000A8421DD14FF67F752A404D894FF6FF76A9
:101C300006EA05152A434FF6BF752A408D8806EA45
:101C400005152A434FF6FF352B404FF2FF752B4009
:101C50008D8906EA85052B43CD8906EA85052B4348
:101C600083800483CD880587028470BD70B500240D
:101C700000220023058C4FF6FF6635400584028C58
:101C80008388848B4FF68F752C404FF6FC752C4063
:101C90000D882C434FF6FF552A400D894FF6FF76ED
:101CA00006EA05252A434D8806EA05252A431F4DE5
:101CB000A84202D0234DA8421DD14FF2FF752A4001
:101CC0004D894FF6FF7606EA05252A434FF6FF3584
:101CD0002A408D8806EA05252A434EF6FF752B40DB
:101CE0004DF6FF752B408D8906EA05152B43CD89EE
:101CF00006EA05152B4383808483CD88858702847B
:101D000070BD70B5002200230024058C4EF6FF76CE
:101D100035400584038C8488828B48F6FF752A4001
:101D20004FF6FF452A400D8820E00000002C0140BE
:101D30000004004000080040000C0040001000407B
:101D40000014004000340140004C014000500140AC
:101D50000054014000180040001C004000200040DA
:101D60000040014000440140004801404FF6FF762A
:101D700006EA05252A434DF6FF752B400D8906EA34
:101D800005352B434D8806EA05352B43FA4DA8420D
:101D900002D0FA4DA84208D14BF6FF752C408D8930
:101DA0004FF6FF7606EA85152C4384808283CD8822
:101DB000A0F84050038470BD828B4FF2FF331A406D
:101DC0008283828B4FF6FF7303EA01231A438283D7
:101DD0007047F0B50C461546002200210026078CFE
:101DE0004EF6FF7C07EA0C070784828B018C4FF6C6
:101DF000FF7707EA043640F6FF473A404FF6FF7791
:101E000007EA05273A434FF6FF7707EA03373A43D5
:101E1000D94FB8420ED0D94FB8420BD0B0F1804F55
:101E200008D0D74FB84205D0D64FB84202D0D64FCF
:101E3000B84206D14DF6FF77394046F48057394312
:101E400005E047F6FF57394044F480573943828311
:101E50000184F0BD828B4FF6F3731A408283828B2C
:101E60000A4382837047F0B50C46154600220021D4
:101E70000026078C4FF6FF6C07EA0C070784828B5D
:101E8000018C4FF6FF7707EA04264FF60C773A40AD
:101E90004FF6FF7707EA03172F433A43B64FB8428E
:101EA0000ED0B64FB8420BD0B0F1804F08D0B44F2F
:101EB000B84205D0B34FB84202D0B34FB84206D1B2
:101EC0004FF6FF57394046F48077394305E04FF22B
:101ED000FF57394044F48077394382830184F0BD51
:101EE000028B4FF2FF331A400283028B4FF6FF73CF
:101EF00003EA01231A4302837047F0B50C461546E6
:101F0000002200210026078C4FF6EF7C07EA0C0721
:101F10000784028B018C4FF6FF7707EA041640F620
:101F2000FF473A404FF6FF7707EA03373A434FF649
:101F3000FF7707EA05273A438F4FB8420ED08F4FFD
:101F4000B8420BD0B0F1804F08D08D4FB84205D0C9
:101F50008C4FB84202D08C4FB84206D14FF6DF7793
:101F6000394046F01007394305E04FF65F773940B6
:101F700044F01007394302830184F0BD028B4FF611
:101F8000F3731A400283028B0A4302837047F0B551
:101F90000C46154600220021068C4FF6FE773E4087
:101FA0000684028B018C4FF60C7632407E1C06EACA
:101FB00003162E433243704EB0420ED06F4EB042E5
:101FC0000BD0B0F1804F08D06D4EB04205D06D4EB1
:101FD000B04202D06C4EB04206D14FF6FD76314091
:101FE00044F00106314305E04FF6F576314044F008
:101FF0000106314302830184F0BD70B505460C46ED
:102000005D4885420ED05D4885420BD0B5F1804FCA
:1020100008D05B48854205D05A48854202D05A48CC
:10202000854200D100E000BF208850B92389A288F2
:1020300061882846FFF7ABFFE1882846FFF79EFF3F
:1020400025E0208804280AD12389A28861882846AF
:10205000FFF753FFE1882846FFF742FF17E020888B
:1020600008280AD12389A28861882846FFF7FBFE49
:10207000E1882846FFF7EEFE09E02389A2886188FF
:102080002846FFF7A6FEE1882846FFF795FE70BDBB
:102090002DE9F04105460C4600260127608808B965
:1020A000022600E00026A088012801D1022700E0D6
:1020B00001272088A0B92389A28861882846FFF7D4
:1020C00066FFE1882846FFF759FF23893A463146E3
:1020D0002846FFF712FFE1882846FFF701FF13E0CB
:1020E0002389A28861882846FFF707FFE1882846F0
:1020F000FFF7F6FE23893A4631462846FFF747FFA9
:10210000E1882846FFF73AFFBDE8F0810A884B884E
:102110001A438B881A43CB881A430B891A434B897D
:102120001A438B891A43A0F8442070474FF6FF7179
:10213000818000210180C1804180017270470021AF
:10214000018041808180C180018141818181C18183
:102150007047002101804180012181800021C180E0
:10216000018170470021018041808180C18001810F
:102170004181818170470000002C01400034014002
:102180000004004000080040000C004021B102881B
:1021900042F00102028004E002884FF6FE731A400A
:1021A0000280704731B1B0F8442042F40042A0F8F8
:1021B000442005E0B0F84420C2F30E02A0F8442009
:1021C00070471AB183890B43838102E083898B4373
:1021D000838170478182704741EA0203A0F848304A
:1021E00070471AB183890B43838102E083898B4353
:1021F0008381704701894FF6F87211400181704761
:102200000A46002101894FF68F731940114301815D
:10221000704730B504460D4629462046FFF7F0FFCB
:10222000208940F00700208130BD2DE9F0410446AF
:102230000D4616461F46602D06D13B46012231460B
:102240002046FFF75AFE05E03B4601223146204674
:10225000FFF79DFE29462046FFF7D2FF208940F078
:1022600007002081BDE8F08130B50C4600210189CE
:10227000C9B24FF6FF7505EA0325154325432943E7
:10228000018130BD2DE9F04105460E4617469846BE
:10229000002443463A4631462846FFF7E5FF2C899D
:1022A0004FF6F870044044F007044FF68F70044076
:1022B00044F070042C81BDE8F081F0B504460D4671
:1022C00016461F463B46324629462046FFF7CCFFBE
:1022D000208940F480402081F0BD018582827047D2
:1022E0000A46002101884FF68F731940114301807F
:1022F0007047F0B50C4615461E460021002200230B
:102300000189028B038C4FF6F877394021434FF651
:10231000FC473A4040F201173A434FF6DD773B4025
:102320004FF6FF7707EA06172F433B4301810283ED
:102330000384F0BD0A460021018B4FF68F731940CC
:102340001143018370470A460021018B48F6FF7351
:1023500019404FF6FF7303EA0223194301837047C4
:102360000A460021818B4FF68F73194011438183F8
:1023700070470A460021818B48F6FF7319404FF6DB
:10238000FF7303EA022319438183704721B1028856
:1023900042F08002028004E002884FF67F731A4008
:1023A0000280704721B1828842F00402828004E0FA
:1023B00082884FF6FB731A408280704721B1828871
:1023C00042F00802828004E082884FF6F7731A40D8
:1023D0008280704721B1828842F00102828004E04D
:1023E00082884FF6FE731A40828070470A460021A9
:1023F000018B4FF6F77319401143018370470A466A
:102400000021018B4FF2FF7319404FF6FF7303EA6F
:1024100002231943018370470A460021818B4FF63E
:10242000F77319401143818370470A460021818B5D
:102430004FF2FF7319404FF6FF7303EA022319436B
:10244000818370470A460021018B4FF6FB731940C8
:102450001143018370470A460021018B4FF6FF3379
:1024600019404FF6FF7303EA0223194301837047B3
:102470000A460021818B4FF6FB731940114381837B
:1024800070470A460021818B4FF6FF3319404FF603
:10249000FF7303EA02231943818370470A46002130
:1024A000018B4FF67F7319401143018370470A4631
:1024B0000021018BC1F30E014FF6FF7303EA0223E3
:1024C0001943018370470A460021818B4FF67F73C1
:1024D00019401143818370470A460021818BC1F363
:1024E0000E014FF6FF7303EA0223194381837047FD
:1024F0000A460021018C4FF6FD73194011430184F7
:1025000070470A460021018C4FF6F77319401143BA
:10251000018470470A460021018C4FF6DF73194091
:102520004FF6FF7303EA02131943018470470A460A
:102530000021018C4FF67F7319404FF6FF7303EAB9
:1025400002131943018470470A460021018C4FF69B
:10255000FF5319404FF6FF7303EA02231943018426
:1025600070470A460021018C4FF2FF7319404FF665
:10257000FF7303EA02231943018470470A460021CE
:10258000018C4DF6FF7319404FF6FF7303EA0233D7
:1025900019430184704730B5002301248C40A3B255
:1025A000048C9C430484048C02FA01F5ADB22C43E4
:1025B000048430BD30B5002304248C40A3B2048CC5
:1025C0009C430484048C02FA01F5ADB22C430484CC
:1025D00030BD70B503460020002418461830012590
:1025E0008D40ACB21D8CA5431D8409B1082909D1C9
:1025F00000EB6100056825F070050560056815436E
:1026000005600EE00D1FC5F34E052844056825F44E
:10261000E045056005684FF6FF7606EA0226354379
:10262000056070BD21B1028842F00202028004E020
:1026300002884FF6FD731A400280704721B102886C
:1026400042F00402028004E002884FF6FB731A4055
:102650000280704721B1828842F08002828004E0CB
:1026600082884FF67F731A408280704702884FF647
:10267000F7731A40028002880A43028070478288FA
:102680004FF68F731A40828082880A438280704797
:1026900002894FF6F8731A40028102890A430281C7
:1026A000704702894FF67F731A40028102890A43FC
:1026B00002817047818470478185704781867047A9
:1026C0000187704781877047A0F8401070470288E3
:1026D0004FF6FF431A40028002880A430280704787
:1026E0000146888E70470146088F70470146888FE3
:1026F00070470146B1F8400070470146888C70472A
:102700000146088D704702460020138A0B4201D013
:10271000012000E000207047CA430282704730B5B4
:102720000246002000230024158A05EA010395894A
:1027300005EA010413B10CB1012000E0002030BD16
:10274000CA4302827047000010B50446FB48844229
:1027500009D101218803FFF79BF800214FF4804045
:10276000FFF796F832E0F648844209D10121480487
:10277000FFF79BF800214FF40030FFF796F825E0B3
:10278000F048844209D101218804FFF78EF8002126
:102790004FF48020FFF789F818E0EB48844209D114
:1027A0000121C804FFF781F800214FF40020FFF752
:1027B0007CF80BE0E548844208D101210805FFF7C9
:1027C00074F800214FF48010FFF76FF810BD2DE969
:1027D000F04786B005460E460024A24600BFA1463B
:1027E0000027B08900B100BF2F462C8A4CF6FF703D
:1027F0000440F08804432C82AC894EF6F310044068
:10280000B08831890843718908430443AC81AC8A9C
:102810004FF6FF400440B0890443AC8201A8FEF7A4
:10282000B0FFC648874202D1DDF810A001E0DDF814
:102830000CA0A88910F4004F08D00AEBCA0000EBE6
:102840000A1031684900B0FBF1F807E00AEBCA0052
:1028500000EB0A1031688900B0FBF1F86420B8FB86
:10286000F0F004012009642101FB1089A88910F40B
:10287000004F08D0322000EBC900B0FBF1F000F0AF
:102880000700044308E0322000EB09106421B0FB8C
:10289000F1F000F00F0004432C8106B0BDE8F08792
:1028A0004FF41651016000218180C18001810C210B
:1028B000418100218181704710B502460020108AB5
:1028C0004FF2FF0318400B884C8823438C88234326
:1028D000CC8823431843108210BD00210180418021
:1028E0008180C180704721B1828942F40052828187
:1028F00004E082894DF6FF731A4082817047F0B57B
:1029000003460024002600250020A1F510676A3F39
:1029100000D100BF1846C1F3421401F01F06012781
:1029200007FA06F5012C01D10C3004E0022C01D18C
:10293000103000E014301AB107682F43076002E03E
:102940000768AF430760F0BD1AB1838A0B438382E7
:1029500002E0838A8B4383827047028A4FF6F073CA
:102960001A400282028A0A430282704782894FF229
:10297000FF731A40828182890A438281704721B1A4
:10298000828942F00202828104E082894FF6FD735F
:102990001A4082817047028A4FF6DF731A40028222
:1029A000028A0A430282704721B1028A42F48042BD
:1029B000028204E0028A4BF6FF731A4002827047DB
:1029C000C1F308028280704701468888C0F308007E
:1029D0007047818941F0010181817047028BD2B239
:1029E0000283028B42EA012202837047028B02F4C7
:1029F0007F420283028B0A430283704721B1828A9D
:102A000042F02002828204E0828A4FF6DF731A408D
:102A10008282704721B1828A42F01002828204E0F1
:102A2000828A4FF6EF731A408282704721B1828A00
:102A300042F00802828204E0828A4FF6F7731A405D
:102A40008282704721B1828942F40042828103E090
:102A50008289C2F30E028281704721B1828A42F4D8
:102A60000062828204E0828A4FF2FF731A408282FF
:102A70007047828A4FF6FB731A408282828A0A4329
:102A80008282704721B1828A42F00202828204E08F
:102A9000828A4FF6FD731A408282704702460020F8
:102AA000B1F5007F00D100BF13880B4201D0012097
:102AB00000E00020704701F40072B2F5007F00D101
:102AC00000BFCA430280704770B50246002400234D
:102AD00000250020A1F510666A3E00D100BFC1F3B9
:102AE000421501F01F03012606FA03F3012D02D15E
:102AF0009689334006E0022D02D1168A334001E068
:102B0000968A33400C12012606FA04F416883440E3
:102B100013B10CB1012000E0002070BD10B50022FF
:102B20000023A1F510646A3C00D100BF0A12012401
:102B30009440A3B2DC43048010BD00000038014083
:102B40000044004000480040004C0040005000405D
:102B5000704700000FB4044910B503AA029800F0B2
:102B60007DF810BC5DF814FB300000202DE9F04129
:102B70000E460446002020622046E168884730B3B4
:102B8000252805D0D4E901219047206A401CF2E7AE
:102B9000E168204600278847050018D0A5F14100CC
:102BA000192802D820354FF40067324629462046BE
:102BB0002760FDF7D5FA40B1012804D0F61D26F0B4
:102BC00007060836D8E7361DD6E72846DAE7206A32
:102BD000BDE8F08170B50C460546012A05D028787D
:102BE000800600D5EA69002302E0012305E05B1CB2
:102BF000934202D2E05C0028F9D1A869E618C01A15
:102C0000A861286A184428622846AFF3008004E0CF
:102C1000D5E9012114F8010B9047B442F8D32846B6
:102C2000AFF3008070BD704770477047704710B5B4
:102C3000436913B1AFF3008001E0FFF7CBFF012040
:102C400010BD127800F124010A7000224A7001229E
:102C5000EDE711684FF0FF32E9E70000074B70B570
:102C60000D467B4400F011F80446284600F020F899
:102C700010B14FF0FF3070BD204670BD91DDFFFFF9
:102C800001694A1C02610878704700B58FB0CDE930
:102C900001310021059105497944CDE90310114620
:102CA0006846FFF763FF0FB000BD0000E5FFFFFFC0
:102CB000007B00F080007047754600F029F8AE46B2
:102CC00005006946534620F00700854618B020B538
:102CD000FDF750FFBDE820404FF000064FF0000721
:102CE0004FF000084FF0000B21F00701AC46ACE8B4
:102CF000C009ACE8C009ACE8C009ACE8C0098D4621
:102D000070470446AFF300802046FDF73BFA000011
:102D10000048704790080020382D0008000000206F
:102D20005000000028010008882D000850000020F5
:102D3000A00E000044010008000000000000000098
:102D4000000000000000000000A24A040000000093
:102D5000000000000102030406070809010000004A
:102D60000000000000000000000000000000000063
:102D70000000000000000102030401020304060732
:082D8000080902040608000026
:04000005080000ED02
:00000001FF
